:100000000C945D000C9485000C9485000C94850084
:100010000C9485000C9485000C9485000C9485004C
:100020000C9485000C9485000C9485000C9485003C
:100030000C9485000C9485000C9485000C9485002C
:100040000C947A020C9485000C94EA020C94C4027D
:100050000C9485000C9485000C9485000C9485000C
:100060000C9485000C9485000000000024002700FB
:100070002A0000000000250028002B0004040404CE
:100080000404040402020202020203030303030342
:10009000010204081020408001020408102001021F
:1000A00004081020000000080002010000030407FB
:1000B00000000000000000001C0311241FBECFEF51
:1000C000D8E0DEBFCDBF22E0A8E3B1E001C01D92C1
:1000D000A032B207E1F711E0A0E0B1E0E0E8FCE116
:1000E00002C005900D92A833B107D9F710E0CDE515
:1000F000D0E004C02197FE010E942C0BCC35D10723
:10010000C9F70E949A030C943E0E0C9400000F93C2
:100110001F932FB7F8946091DA017091DB01809101
:10012000DC019091DD012FBF0091E2011091E3010C
:100130002091E4013091E501601B710B820B930B60
:100140001F910F91089590E0FC01EC55FF4F249111
:10015000FC01E057FF4F3491FC01E458FF4FE4915C
:10016000EE23C9F0222339F0233001F1A8F4213025
:1001700019F1223029F1F0E0EE0FFF1FEE58FF4F8A
:10018000A591B4918FB7F894EC91611126C0309588
:100190003E233C938FBF08952730A9F02830C9F043
:1001A000243049F7809180008F7D03C080918000CA
:1001B0008F7780938000DFCF84B58F7784BDDBCFCE
:1001C00084B58F7DFBCF8091B0008F778093B00096
:1001D000D2CF8091B0008F7DF9CF3E2BDACFCF9375
:1001E000DF9390E0FC01E057FF4F249184589F4F2C
:1001F000FC0184918823D1F090E0880F991FFC01C5
:10020000E859FF4FA591B491FC01EE58FF4FC591FD
:10021000D49161110EC09FB7F8948C91E22FE095B4
:100220008E238C932881E223E8839FBFDF91CF91B7
:1002300008958FB7F894EC91E22BEC938FBFF6CF33
:100240003FB7F8948091390190913A01A0913B0118
:10025000B0913C0126B5A89B05C02F3F19F001962F
:10026000A11DB11D3FBFBA2FA92F982F8827BC0110
:10027000CD01620F711D811D911D42E0660F771F38
:10028000881F991F4A95D1F70895AF92BF92CF92D8
:10029000DF92EF92FF920F931F93CF93DF936C0146
:1002A0007B018B01040F151FEB015E01AE18BF0827
:1002B000C017D10759F06991D601ED91FC910190D9
:1002C000F081E02DC6010995892B79F7C501DF91F1
:1002D000CF911F910F91FF90EF90DF90CF90BF9043
:1002E000AF900895FC01538D448D252F30E0842F6D
:1002F00090E0821B930B541710F0CF96089501974E
:100300000895FC01918D828D981761F0A28DAE0F3A
:10031000BF2FB11D5D968C91928D9F5F9F73928FC1
:1003200090E008958FEF9FEF0895FC01918D828DED
:10033000981731F0828DE80FF11D858D90E00895BA
:100340008FEF9FEF0895FC01918D228D892F90E012
:10035000805C9F4F821B91098F73992708958DE3CD
:1003600091E00E94A30121E0892B09F420E0822F73
:10037000089580E090E0892B29F00E94AF0181115F
:100380000C9400000895FC01A48DA80FB92FB11D95
:10039000A35ABF4F2C91848D90E001968F739927BB
:1003A000848FA689B7892C93A089B1898C91837099
:1003B00080648C93938D848D981306C00288F38992
:1003C000E02D80818F7D80830895EF92FF920F93BF
:1003D0001F93CF93DF93EC0181E0888F9B8D8C8DF1
:1003E00098131AC0E889F989808185FF15C09FB7E5
:1003F000F894EE89FF896083E889F98980818370A8
:10040000806480839FBF81E090E0DF91CF911F9156
:100410000F91FF90EF900895F62E0B8D10E00F5F77
:100420001F4F0F731127E02E8C8D8E110CC00FB64D
:1004300007FCFACFE889F989808185FFF5CFCE01E5
:100440000E94C301F1CFEB8DEC0FFD2FF11DE35A9C
:10045000FF4FF0829FB7F8940B8FEA89FB89808168
:100460008062CFCFCF93DF93EC01888D8823B9F0E2
:10047000AA89BB89E889F9898C9185FD03C08081AF
:1004800086FD0DC00FB607FCF7CF8C9185FFF2CF2C
:10049000808185FFEDCFCE010E94C301E9CFDF91BE
:1004A000CF9108950F931F93CF93DF93EC01888131
:1004B0009981009759F02A813B812617370730F040
:1004C00081E0DF91CF911F910F9108958B016F5FB4
:1004D0007F4F0E94710D009759F0998388831B8389
:1004E0000A832C813D81232B59F7FC011082E8CF30
:1004F00080E0E7CF1F920F920FB60F9211242F9337
:100500003F938F939F93AF93BF938091DA01909124
:10051000DB01A091DC01B091DD013091380123E0D5
:10052000230F2D3758F50196A11DB11D20933801D9
:100530008093DA019093DB01A093DC01B093DD019D
:100540008091390190913A01A0913B01B0913C0119
:100550000196A11DB11D8093390190933A01A0939A
:100560003B01B0933C01BF91AF919F918F913F911F
:100570002F910F900FBE0F901F90189526E8230F14
:100580000296A11DB11DD2CF1F920F920FB60F92EE
:1005900011242F933F934F935F936F937F938F9388
:1005A0009F93AF93BF93EF93FF938DE391E00E94EE
:1005B000C301FF91EF91BF91AF919F918F917F9177
:1005C0006F915F914F913F912F910F900FBE0F90C0
:1005D0001F9018951F920F920FB60F9211242F9310
:1005E0008F939F93EF93FF93E0914D01F0914E0114
:1005F0008081E0915301F091540182FD1BC09081F4
:10060000809156018F5F8F7320915701821741F0BF
:10061000E0915601F0E0E35CFE4F958F8093560128
:10062000FF91EF919F918F912F910F900FBE0F909F
:100630001F9018958081F4CFEDE3F1E013821282D0
:1006400088EE93E0A0E0B0E084839583A683B7832F
:1006500080E291E09183808385EC90E095878487A8
:1006600084EC90E09787868780EC90E0918B808B7C
:1006700081EC90E0938B828B82EC90E0958B848B65
:1006800086EC90E0978B868B118E128E138E148ED3
:10069000EEEDF1E010821182128213822FB7F894EE
:1006A0008091DA019091DB01A091DC01B091DD0134
:1006B0002FBF84839583A683B78310861186128605
:1006C00013861486158616861786108A118A128A52
:1006D000138A148A158A168A178A108E118E128E22
:1006E000138E148E158E168E178E8FEF80A381A316
:1006F00082A383A384A315A216A217A210A611A6F3
:1007000012A613A614A615A616A617A610AA11AA15
:1007100012AA13AA14AA15AA16AA17AA10AE81E043
:1007200081AF82E082AF83E083AF84E084AF85E075
:1007300085AF0895CF93DF93CDB7DEB72F970FB670
:10074000F894DEBF0FBECDBF789484B5826084BDBF
:1007500084B5816084BD85B5826085BD85B58160C5
:1007600085BD80916E00816080936E001092810043
:1007700080918100826080938100809181008160FE
:1007800080938100809180008160809380008091BF
:10079000B10084608093B1008091B000816080934B
:1007A000B00080917A00846080937A0080917A0012
:1007B000826080937A0080917A00816080937A00D1
:1007C00080917A00806880937A001092C10082E064
:1007D0008093000148EE53E060E070E04093050133
:1007E00050930601609307017093080100ED17E034
:1007F00020E030E0009301011093020120930301F7
:1008000030930401E7E0E093120199E09093130123
:1008100080911101A0911401F09115018093FF01C5
:10082000E09300029093FE01A0930102F093020274
:1008300000930302109304022093050230930602F2
:1008400040930A0250930B0260930C0270930D02C6
:1008500040930E0250930F026093100270931102A6
:100860004093120250931302609314027093150286
:1008700018161CF461E00E94EF0080910002181627
:100880001CF461E00E94EF008091FE0118161CF438
:1008900061E00E94EF008091010218161CF460E0F4
:1008A0000E94EF008091020218161CF460E00E9482
:1008B000EF00809116028093DF0180E090E0A8E4D1
:1008C000B3E48093E9019093EA01A093EB01B09324
:1008D000EC0181E080930702E0914D01F0914E011F
:1008E00082E08083E0914901F0914A011082E09119
:1008F0004B01F0914C018FEC808310925501E091F7
:100900005101F091520186E08083E0914F01F09116
:100910005001808180618083E0914F01F09150010E
:10092000808188608083E0914F01F0915001808147
:1009300080688083E0914F01F091500180818F7D2C
:100940008083CE0101964C01772473949091DF014E
:1009500080911602981334C0809107028823C9F051
:100960000E94870000910302109104022091050269
:1009700030910602061717072807390720F48091DF
:1009800017028093E0019091DF0180911602981385
:1009900017C080910802882399F00E948700009177
:1009A00003021091040220910502309106020617FD
:1009B00017072807390720F4809119028093E00176
:1009C0008091DF012091170240911802821305C027
:1009D0009091FD0191114093E001909119023091A5
:1009E0001A028913BFC15091FD0151113093E001EA
:1009F0002913C8C1B9C19701A801632D742D852D94
:100A0000962D0E94D10987FD10C09501A601632D86
:100A1000742D852D962D0E94470C750186011816A0
:100A200024F0E32CF42C052D162DC701D801DBC2D0
:100A30008091E9019091EA01A091EB01B091EC0164
:100A4000D2C29701A801632D742D852D962D0E9489
:100A5000D10987FD10C09501A601632D742D852D48
:100A6000962D0E94470C75018601181624F0E32C80
:100A7000F42C052D162DC701D80177C38091E9010B
:100A80009091EA01A091EB01B091EC016EC3E12CD1
:100A9000F12C00E010E01FC40F3F110511F461E0DC
:100AA00052C4EF2D0F2C000CFF0BEC55FF4FE491BF
:100AB000E33009F419C148F4E130C9F0E23009F437
:100AC0000EC1003811055CF73DC4E73009F416C1CA
:100AD000E83009F41BC1E430A1F780918000806206
:100AE0008093800010938B0000938A0004C084B52B
:100AF000806884BDE7BCC090F901D090FA01E09015
:100B0000FB01F090FC012090E9013090EA01409057
:100B1000EB015090EC0120E030E040E85FE3C201DF
:100B2000B1010E94320B9B01AC01C701B6010E94CA
:100B3000470C87FD11C020E030E040E85FE3C201D0
:100B4000B1010E94330B9B01AC0111E0C701B6015A
:100B50000E94D10918160CF410E01093FD01809149
:100B6000DF018093E101823009F4D8C0843009F4B8
:100B7000D8C08091E801882309F480C01B861A86BA
:100B80001D861C861F861E864AE0B40190E00E94E6
:100B9000A709F40101900020E9F731978F010819A6
:100BA0001909B801CE010A960E9452022A853B8596
:100BB0008111BAC02115310519F0C9010E94E80C54
:100BC0001B861A861F861E861D861C861A8219821F
:100BD0001C821B821E821D8266E070E0C4010E949E
:100BE000520229813A818111A6C02115310519F0DF
:100BF000C9010E94E80C1A8219821E821D821C8281
:100C00001B82EA84FB84E114F10409F49EC00E8582
:100C10001F8501151105B1F08D819E81080F191FE7
:100C2000B801C4010E945202882309F48EC02981B0
:100C30003A818D819E81B701820F931F0E94370EEA
:100C40001E830D834D815E8169817A818DE391E000
:100C50000E94450142E050E065E371E08DE391E0E0
:100C60000E94450189819A81009711F00E94E80C49
:100C70008A859B85009711F00E94E80C0E94200154
:100C80001B012C0184E6C82ED12CE12CF12C0E94F2
:100C900020016219730984099509683E7340810532
:100CA0009105A8F391E0C91AD108E108F10828EEEE
:100CB000220E23E0321E411C511CC114D104E10458
:100CC000F10429F780E090E0892B09F43FCE0E94DF
:100CD000AF01882309F43ACE0E94000037CE84B5D4
:100CE000806284BDE8BC07CF8091800080688093DB
:100CF00080001093890000938800FDCE8091B000A1
:100D000080688093B000E092B300F5CE8091B0008F
:100D100080628093B000E092B400EDCE7092080241
:100D200028CF7092070225CF1F870E87B401C90113
:100D30000E94370E4BCF86E090E09E838D836EE25B
:100D400071E0C9010E94370E5CCF89819A810097BA
:100D500011F00E94E80C1A8219821E821D821C82E8
:100D60001B8270CF821316C050910902511104C02A
:100D700050910802552389F150911B025093E001D4
:100D8000891308C050910902552349F150911B0263
:100D90005093E00184130CC050910902511104C01A
:100DA00050910802552321F050911B025093E0010D
:100DB00083131AC050910902511104C050910702C7
:100DC000552321F050911B025093E001431771F01D
:100DD0002091FD01222391F013C08913DBCF5091A4
:100DE00007025111D3CFD6CF84130AC04091FD0121
:100DF000411106C02093E001831302C09093E001EB
:100E000090911B02891308C08091E801833020F47F
:100E1000809116028093E0018091E0018093DF01D0
:100E20009091E10121E0891301C020E02093DE01CF
:100E3000891799F02FB7F8948091DA019091DB012E
:100E4000A091DC01B091DD012FBF8093E20190936E
:100E5000E301A093E401B093E5018091DF0190915B
:100E60001602891314C09091DE01992381F010922B
:100E700009021092E6011092E7011092E801109227
:100E8000F9011092FA011092FB011092FC0190916D
:100E900017028913BCC0C0900A02D0900B02E090E8
:100EA0000C02F0900D028091DE01882309F441C00C
:100EB0007092E6011092E701C701B6010E94D609BF
:100EC0009B01AC0160E070E08FE793E40E949F0B10
:100ED0001B012C012092F1013092F2014092F301AA
:100EE0005092F4016091F9017091FA018091FB0137
:100EF0009091FC016093ED017093EE018093EF01FE
:100F00009093F0012091E9013091EA014091EB01C9
:100F10005091EC010E94470C18165CF4D201C101FB
:100F2000B0588093F1019093F201A093F301B09334
:100F3000F401CD28CE28CF2809F47ACDC090ED0158
:100F4000D090EE01E090EF01F090F0012090F101DF
:100F50003090F2014090F3015090F4010E9487001C
:100F60000E94D609A20191010E94370AA7019601A9
:100F70000E94330B362E472E582E692EE090E90141
:100F8000F090EA010091EB011091EC01A090ED01CD
:100F9000B090EE01C090EF01D090F0019501A60154
:100FA000B701C8010E94470C18160CF024CD95011A
:100FB000A601632D742D852D962D0E94D10987FDE4
:100FC00010C09701A801632D742D852D962D0E94C8
:100FD000470C57016801181624F0A32CB42CC52C1B
:100FE000D62CC501D6018093F9019093FA01A09304
:100FF000FB01B093FC016091F9017091FA018091BD
:10100000FB019091FC010E94110C6093E80190910A
:10101000DF01809119029813BCC0C0900E02D090DD
:101020000F02E0901002F09011028091DE018823FF
:1010300009F441C01092E6017092E701C701B601C0
:101040000E94D6099B01AC0160E070E08FE793E459
:101050000E949F0B1B012C012092F1013092F201A2
:101060004092F3015092F4016091F9017091FA01FC
:101070008091FB019091FC016093ED017093EE0172
:101080008093EF019093F0012091E9013091EA0102
:101090004091EB015091EC010E94470C18165CF452
:1010A000D201C101B0588093F1019093F201A09355
:1010B000F301B093F401CD28CE28CF2809F4DECC7B
:1010C000C090ED01D090EE01E090EF01F090F001C2
:1010D0002090F1013090F2014090F3015090F40122
:1010E0000E9487000E94D609A20191010E94370A3E
:1010F000A70196010E94330B362E472E582E692EDB
:10110000E090E901F090EA010091EB011091EC010F
:10111000A090ED01B090EE01C090EF01D090F001F1
:101120009501A601B701C8010E94470C18160CF0E2
:1011300088CC9501A601632D742D852D962D0E94D6
:10114000D10987FD10C09701A801632D742D852D4D
:10115000962D0E94470C57016801181624F0A32C05
:10116000B42CC52CD62CC501D6018093F9019093DF
:10117000FA01A093FB01B093FC016091F901709119
:10118000FA018091FB019091FC010E94110C609387
:10119000E8010091DF0110911802011310C0809145
:1011A000DE01882361F06091E9017091EA0180918C
:1011B000EB019091EC010E94110C6093E801809189
:1011C0001B0208139EC08091DE018823F1F18091FB
:1011D000E10190911702891711F0181302C01092C3
:1011E000070290911902891721F090911A02891330
:1011F00002C0109208026091120270911302809155
:101200001402909115020E94D6099B01AC0160E086
:1012100070E08FE793E40E949F0B6093F10170935D
:10122000F2018093F3019093F4018091F901909180
:10123000FA01A091FB01B091FC018093ED01909324
:10124000EE01A093EF01B093F00180911202909112
:101250001302A0911402B0911502892B8A2B8B2BBB
:1012600009F443C0C090ED01D090EE01E090EF0191
:10127000F090F0012090F1013090F2014090F301E4
:101280005090F4010E9487000E94D609A2019101AA
:101290000E94370A9B01AC01C701B6010E94320BC4
:1012A0007B018C0120E030E0A9010E94D10987FD7B
:1012B000EECBA090ED01B090EE01C090EF01D09088
:1012C000F0019501A601B701C8010E94470C18164C
:1012D00014F475018601C701D8018093F901909338
:1012E000FA01A093FB01B093FC016091F9017091A8
:1012F000FA018091FB019091FC010E94110C609316
:10130000E8018091FF01181624F46091E6010E9423
:10131000A30080910002181624F46091E7010E9456
:10132000A300F090FE011F140CF0E5CBE090E80163
:101330000E2D10E061E08F2D0E94EF0001151105C8
:1013400009F0AACB60E08F2D0E94A300D4CBBB276D
:10135000FB015527AA27880F991FAA1FA41710F071
:10136000A41B83955051B9F7A05DAA3308F0A95D7D
:10137000A193009779F7B111B1931192CB010C941D
:10138000C109DC01FC01672F71917723E1F73297E6
:1013900004C07C916D9370836291AE17BF07C8F350
:1013A00008950E94130A08F481E00895E89409C0A2
:1013B00097FB3EF490958095709561957F4F8F4F88
:1013C0009F4F9923A9F0F92F96E9BB279395F6959E
:1013D000879577956795B795F111F8CFFAF4BB0F1C
:1013E00011F460FF1BC06F5F7F4F8F4F9F4F16C080
:1013F000882311F096E911C0772321F09EE8872F0A
:10140000762F05C0662371F096E8862F70E060E0C5
:101410002AF09A95660F771F881FDAF7880F96953E
:10142000879597F90895990F0008550FAA0BE0E8E2
:10143000FEEF16161706E807F907C0F01216130696
:10144000E407F50798F0621B730B840B950B39F4D6
:101450000A2661F0232B242B252B21F408950A263C
:1014600009F4A140A6958FEF811D811D08950E946A
:101470004A0A0C94BB0A0E94AD0A38F00E94B40AD2
:1014800020F0952311F00C94A40A0C94AA0A1124BC
:101490000C94EF0A0E94CC0A70F3959FC1F3950F4C
:1014A00050E0551F629FF001729FBB27F00DB11DE8
:1014B000639FAA27F00DB11DAA1F649F6627B00D78
:1014C000A11D661F829F2227B00DA11D621F739F61
:1014D000B00DA11D621F839FA00D611D221F749F6F
:1014E0003327A00D611D231F849F600D211D822FB6
:1014F000762F6A2F11249F5750409AF0F1F08823DD
:101500004AF0EE0FFF1FBB1F661F771F881F915009
:101510005040A9F79E3F510580F00C94A40A0C940A
:10152000EF0A5F3FE4F3983ED4F38695779567958D
:10153000B795F795E7959F5FC1F7FE2B880F911D33
:101540009695879597F9089597F99F6780E870E0D9
:1015500060E008959FEF80EC089500240A94161629
:10156000170618060906089500240A941216130691
:10157000140605060895092E0394000C11F488231F
:1015800052F0BB0F40F4BF2B11F460FF04C06F5F3B
:101590007F4F8F4F9F4F089557FD9058440F551F11
:1015A00059F05F3F71F04795880F97FB991F61F0E5
:1015B0009F3F79F087950895121613061406551F5C
:1015C000F2CF4695F1DF08C0161617061806991FC8
:1015D000F1CF86957105610508940895E894BB27BD
:1015E00066277727CB0197F908952F923F924F9264
:1015F0005F926F927F928F929F92AF92BF92CF92A3
:10160000DF92EF92FF920F931F93CF93DF93CDB7AB
:10161000DEB7CA1BDB0B0FB6F894DEBF0FBECDBF23
:1016200009942A88398848885F846E847D848C84F4
:101630009B84AA84B984C884DF80EE80FD800C81FD
:101640001B81AA81B981CE0FD11D0FB6F894DEBFE0
:101650000FBECDBFED010895EE0FFF1F0590F49171
:10166000E02D09945058BB27AA270E944A0B0C94DE
:10167000BB0A0E94AD0A38F00E94B40A20F039F487
:101680009F3F19F426F40C94AA0A0EF4E095E7FBA8
:101690000C94A40AE92F0E94CC0A58F3BA176207E7
:1016A00073078407950720F079F4A6F50C94EE0AE9
:1016B0000EF4E0950B2EBA2FA02D0B01B90190016D
:1016C0000C01CA01A0011124FF27591B99F0593FB1
:1016D00050F4503E68F11A16F040A22F232F342FF9
:1016E0004427585FF3CF469537952795A795F04047
:1016F0005395C9F77EF41F16BA0B620B730B840B5C
:10170000BAF09150A1F0FF0FBB1F661F771F881F13
:10171000C2F70EC0BA0F621F731F841F48F487956B
:1017200077956795B795F7959E3F08F0B0CF93955D
:10173000880F08F09927EE0F9795879508950E94D6
:10174000B30B0C94BB0A0E94B40A58F00E94AD0A75
:1017500040F029F45F3F29F00C94A40A51110C9435
:10176000EF0A0C94AA0A0E94CC0A68F39923B1F3F9
:10177000552391F3951B550BBB27AA2762177307B7
:10178000840738F09F5F5F4F220F331F441FAA1F4B
:10179000A9F335D00E2E3AF0E0E832D09150504007
:1017A000E695001CCAF72BD0FE2F29D0660F771FB5
:1017B000881FBB1F261737074807AB07B0E809F09B
:1017C000BB0B802DBF01FF2793585F4F3AF09E3F20
:1017D000510578F00C94A40A0C94EF0A5F3FE4F3EF
:1017E000983ED4F3869577956795B795F7959F5F63
:1017F000C9F7880F911D9695879597F90895E1E0AF
:10180000660F771F881FBB1F621773078407BA070D
:1018100020F0621B730B840BBA0BEE1F88F7E09568
:1018200008950E94180C6894B1110C94EF0A089561
:101830000E94D40A88F09F5798F0B92F9927B75182
:10184000B0F0E1F0660F771F881F991F1AF0BA9564
:10185000C9F714C0B13091F00E94EE0AB1E00895CA
:101860000C94EE0A672F782F8827B85F39F0B93FBC
:10187000CCF3869577956795B395D9F73EF4909517
:101880008095709561957F4F8F4F9F4F08950E946F
:10189000130A08F48FEF08950F931F93CF93DF93EC
:1018A0008230910510F482E090E0E0911E02F09108
:1018B0001F0230E020E0B0E0A0E0309799F421155D
:1018C000310509F44AC0281B390B24303105D8F5FD
:1018D0008A819B816115710589F1FB019383828364
:1018E000FE0111C0408151810281138148175907BF
:1018F000E0F04817590799F4109761F012960C938D
:10190000129713961C933296CF01DF91CF911F91BE
:101910000F91089500931E0210931F02F4CF21151A
:10192000310551F04217530738F0A901DB019A0144
:10193000BD01DF01F801C1CFEF01F9CF90931F0284
:1019400080931E02CDCFFE01E20FF31F819391938E
:101950002250310939832883D7CF20911C0230913E
:101960001D02232B41F4209118013091190130936D
:101970001D0220931C0220911601309117012115A0
:10198000310541F42DB73EB740911A0150911B012A
:10199000241B350BE0911C02F0911D02E217F307A6
:1019A000A0F42E1B3F0B2817390778F0AC014E5FCF
:1019B0005F4F2417350748F04E0F5F1F50931D02ED
:1019C00040931C02819391939FCFF0E0E0E09CCF85
:1019D000CF93DF930097E9F0FC01329713821282D4
:1019E000A0911E02B0911F02ED0130E020E010979F
:1019F000A1F420813181820F931F20911C0230912C
:101A00001D022817390709F061C0F0931D02E09309
:101A10001C02DF91CF910895EA01CE17DF07E8F5A8
:101A20004A815B819E0141155105B1F7E901FB83B4
:101A3000EA8349915991C40FD51FEC17FD0761F452
:101A4000808191810296840F951FE9019983888393
:101A5000828193819B838A83F0E0E0E012968D91EE
:101A60009C9113970097B9F52D913C911197CD0159
:101A70000296820F931F20911C0230911D0228179D
:101A8000390739F6309751F510921F0210921E0255
:101A9000B0931D02A0931C02BCCFD383C2834081AC
:101AA0005181840F951FC817D90761F44E5F5F4FAE
:101AB00088819981480F591F518340838A819B8176
:101AC000938382832115310509F0B0CFF0931F0273
:101AD000E0931E029ECFFD01DC01C0CF1382128273
:101AE000D7CFB0E0A0E0E7E7FDE00C94F70A8C0167
:101AF000009751F4CB010E944C0C8C01C801CDB76A
:101B0000DEB7E0E10C94130BFC01E60FF71F9C011C
:101B100022503109E217F30708F49DC0D901CD9195
:101B2000DC911197C617D70798F0C530D10530F36F
:101B3000CE0104978617970708F3C61BD70B229789
:101B4000C193D1936D937C93CF010E94E80CD6CFC3
:101B50005B01AC1ABD0A4C018C0E9D1EA0911E02A9
:101B6000B0911F02512C412CF12CE12C109731F532
:101B700080911C0290911D028815990509F05CC0A6
:101B80004616570608F058C080911601909117012B
:101B9000009741F48DB79EB740911A0150911B01F7
:101BA000841B950BE817F90708F055C0F0931D0248
:101BB000E0931C02F90171836083A0CF8D919C9109
:101BC000119712966C90129713967C901397A81504
:101BD000B90559F56C0142E0C40ED11CCA14DB04EE
:101BE00020F1AC014A195B09DA011296159780F0D1
:101BF0006282738251834083D9016D937C93E11497
:101C0000F10471F0D7011396FC93EE93129776CFFF
:101C100022968C0F9D1FF90191838083F301EFCFF2
:101C2000F0931F02E0931E0269CF4816590608F48C
:101C30002C017D01D3019ACFCB010E944C0C7C0179
:101C4000009749F0AE01B8010E942E0EC8010E9413
:101C5000E80C870153CF10E000E050CFFB01DC011E
:101C600002C001900D9241505040D8F70895FB01F9
:101C7000DC0101900D920020E1F70895F894FFCF68
:101C80000000000000000000000000000000000054
:101C900000FFFFFFFFFF00002002800000000000A7
:101CA000E501450172013202A301810195017370C2
:081CB0006565643A000D0A00AD
:00000001FF
